:100000000C9446000C9465000C9465000C946500FB
:100010000C9465000C9467000C9476000C94850099
:100020000C9494000C94C8000C9465000C9465002A
:100030000C946E150C9465000C9465000C94A30050
:100040000C9465000C9465000C9465000C9465009C
:100050000C9465000C942A010C9465000C946500C6
:100060000C9465000C9465000C9465000C9465007C
:100070000C9465000C9465000C9465000C9465006C
:100080000C9465000C9489030C94650011241FBE28
:10009000CFEFD0E1DEBFCDBF15E0A0E0B1E0EAEBED
:1000A000FAE800E00BBF02C007900D92A630B1073E
:1000B000D9F719E0A6E0B5E001C01D92A33CB10755
:1000C000E1F70E9463130C945B450C9400001F92AF
:1000D0000F920FB60F9211248F9381E080931A052F
:1000E0008F910F900FBE0F901F9018951F920F9237
:1000F0000FB60F9211248F9381E080931B058F918F
:100100000F900FBE0F901F9018951F920F920FB671
:100110000F9211248F9381E080931C058F910F9093
:100120000FBE0F901F9018951F920F920FB60F924F
:1001300011248F9381E080931D058F910F900FBE46
:100140000F901F9018951F920F920FB60F921124C7
:100150008F93809124058F5F8093240580912405DF
:100160008D3739F410922405809125058F5F809397
:10017000250580912505853029F41092250581E01B
:10018000809326058F910F900FBE0F901F901895AA
:100190001F920F920FB60F9211248F938091230517
:1001A000882321F0809131058E31A8F580913205A8
:1001B0008F5F809332058150813081F0813028F04B
:1001C0008230A9F0833069F51EC08091DA0385BBC7
:1001D00088B38FEE88BB8091170511C08091DB0337
:1001E00085BB88B38FED88BB8091180508C08091CE
:1001F000DC0385BB88B38FEB88BB8091190588230E
:1002000041F0AF9A0EC08091DD0385BB88B38FE7C4
:1002100088BBAF9806C0809132058F5F809332050E
:1002200015BA80913205843079F4809123058823B2
:1002300039F0809131058F5F80933105883211F458
:1002400010923105109232058F910F900FBE0F90D2
:100250001F9018951F920F920FB60F9211248F9333
:1002600081E0809316058F910F900FBE0F901F9025
:10027000189582E780937000109271000895E4E76A
:10028000F0E084E9808310820895982F84EA8093B7
:1002900074008091740087FFFCCF80917100887F8B
:1002A0008830B9F7990F91609093730084E8809338
:1002B00074008091740087FFFCCF80917100887F6B
:1002C0008034B9F784E8809374008091740087FFCC
:1002D000FCCF80917100887F8835B9F780917300D9
:1002E00094E9909374000895982F84EA80937400A1
:1002F0008091740087FFFCCF80917100887F8830E7
:10030000B9F7990F9093730084E8809374008091FB
:10031000740087FFFCCF80917100887F8831B9F726
:100320006093730084E8809374008091740087FF69
:10033000FCCF80917100887F8832B9F784E980937F
:1003400074000895880F8093720084E48093740091
:100350008091740087FFFCCF80917100887F803688
:10036000B9F784EC809374008091740087FFFCCF10
:1003700080917100887F8038B9F79091730084EC88
:10038000809374008091740087FFFCCF809171008E
:10039000887F803AB9F784EC80937400892F0895A0
:1003A000880F8093720084E48093740080917400BD
:1003B00087FFFCCF80917100887F883AB9F76093FE
:1003C000730084EC809374008091740087FFFCCFED
:1003D00080917100887F803CB9F784EC8093740031
:1003E00008959FEF9ABB9BBB87EF87BB18BA94BB5E
:1003F00015BA81B38F7081BB84E082B91A9A909349
:10040000640088E18093650008958AEA8ABF80EFDE
:1004100089BF08958FE287B98FE886B9089589E189
:1004200083BD80E887BF8DE085BD08958430910548
:1004300031F1853091057CF481309105C1F0823035
:1004400091051CF4892BA9F024C08230910599F004
:100450000397F9F412C086309105A9F08630910512
:1004600084F08730910589F0089799F410C086E0F0
:1004700008958FE308958BE508958FE4089586E647
:1004800008958DE608958DE7089587E208958FE732
:10049000089587E608950F931F938C0168EE73E02B
:1004A0000E94F140CB010E9416028093DA0317FDEF
:1004B00002C0C80107C080E48093DA038827992727
:1004C000801B910B68EE73E00E94F140182F092FFA
:1004D00064E670E00E94F140CB010E941602809316
:1004E000DB03812F902F64E670E00E94F140182F0B
:1004F000092F6AE070E00E94F140CB010E941602D1
:100500008093DC03812F902F6AE070E00E94F1401D
:100510000E9416028093DD031F910F9108951F938F
:10052000182F10920A0510920B0510920C051092CC
:100530000D0560E070E0369A809116058823E1F39E
:100540001092160584B195B197FF15C020910A0548
:1005500030910B0540910C0550910D0584B195B17A
:10056000F6E096958795FA95E1F7A0E0B0E09C6FEC
:10057000AF6FBF6F11C020910A0530910B054091FC
:100580000C0550910D0584B195B1E6E096958795DF
:10059000EA95E1F7A0E0B0E0820F931FA41FB51F1A
:1005A00080930A0590930B05A0930C05B0930D055D
:1005B0006F5F7F4F21E06C32720709F0BCCF609112
:1005C0000A0570910B0580910C0590910D052CE2A8
:1005D00031E040E050E00E94264126553040404046
:1005E0005040CA01B9010E94923D20E43EEC48E42B
:1005F0005FE30E94083C0E94F03D70930F056093FA
:100600000E05112331F080910E0590910F050E9487
:100610004B0280911F05882391F480910E059091E3
:100620000F05883C91053CF480910E0590910F05D3
:100630008D599F4F24F41A9881E080931F052091D3
:100640000E0530910F058091DE0390E028173907E1
:1006500024F480911F05882341F084E080938B0768
:10066000809165008F708093650020910E05309118
:100670000F058091DE0390E02817390734F180914F
:100680000E0590910F05883C9105FCF480911F05A3
:100690008823D9F480912F0590913005019690938D
:1006A000300580932F0580912F059091300588515A
:1006B0009C4F0E944B0288E893E128EC30E0F9015E
:1006C0003197F1F70197D9F705C0809165008061F6
:1006D0008093650088E893E128EC30E0F9013197D8
:1006E000F1F70197D9F71F91089510922405109200
:1006F000250510922605882311F48AEF03C0813066
:1007000011F484E081BF87B7826087BF8EE083BF2A
:1007100008951F920F920FB60F920BB60F921124ED
:100720002F933F934F935F936F937F938F939F93F9
:10073000AF93BF93EF93FF9381E08093150586E617
:1007400085BB84E48093740081E00E9475039DE67C
:1007500001C095BB8091740087FFFBCF8091710031
:10076000887F8036B1F784EC8093740080917400A8
:1007700087FFFCCF80917100887F8038B9F78DE7C3
:1007800085BB809173008093140584EC8093740082
:100790008091740087FFFCCF80917100887F803A40
:1007A000B9F787E285BB84EC80937400FF91EF91E9
:1007B000BF91AF919F918F917F916F915F914F9179
:1007C0003F912F910F900BBE0F900FBE0F901F9077
:1007D00018951F93880F8093720084E480937400AF
:1007E0008091740087FFFCCF80917100887F8036F4
:1007F000B9F784EC8093740081E00E94750304C013
:10080000809126058823B1F48091740087FFF8CF8A
:1008100080917100887F803899F71091730084EC83
:100820008093740081E00E9475030FC080912605BB
:10083000882359F013BE15BC8DE085BD84E98093F3
:1008400074001092740010E00CC08091740087FF57
:10085000EDCF80917100887F803A41F784EC8093DE
:100860007400812F1F9108951F93182F84EA80939D
:10087000740081E00E94750304C0809126058823DE
:1008800061F58091740087FFF8CF80917100887FB7
:10089000883099F7110F11601093730084E88093EA
:1008A000740081E00E94750304C0809126058823AE
:1008B000A1F48091740087FFF8CF80917100887F48
:1008C000803499F784E88093740081E00E94750376
:1008D0000FC080912605882359F013BE15BC8DE00A
:1008E00085BD84E9809374001092740090E00EC07E
:1008F0008091740087FFEDCF80917100887F8835EB
:1009000041F79091730084E980937400892F1F91BF
:1009100008951F93162F880F8093720084E48093AC
:10092000740081E00E9475038091740087FFFCCF02
:1009300080917100887F883AB9F71093730084EC36
:100940008093740081E00E9475030EC0809126059B
:10095000882351F013BE15BC8DE085BD84E98093DA
:100960007400109274000CC08091740087FFEECF69
:1009700080917100887F803C49F784EC80937400FB
:100980001F9108950F931F93182F062F84EA8093C9
:10099000740081E00E94750304C0809126058823BD
:1009A00069F58091740087FFF8CF80917100887F8E
:1009B000883099F7110F1093730084E880937400C6
:1009C00081E00E94750304C0809126058823B1F45C
:1009D0008091740087FFF8CF80917100887F883103
:1009E00099F70093730084E88093740081E00E947B
:1009F00075030EC080912605882351F013BE15BCE7
:100A00008DE085BD84E980937400109274000CC061
:100A10008091740087FFEECF80917100887F8832CB
:100A200049F784E9809374001F910F910895CF9244
:100A3000DF92EF92FF921F93CF93DF938093120583
:100A4000882309F044C0C1E0D0E0B8ECEB2EF12CD3
:100A5000A1E0CA2ED12C1C2F8C2F6AEA0E94C2045E
:100A600088EE93E0F7013197F1F70197D9F7812FDD
:100A70000E94340428EE33E0F7013197F1F721505A
:100A80003040D1F78B3AC1F4809113058F5F80938A
:100A900013052091B1093091B2092197C6010C2E9E
:100AA00002C0880F991F0A94E2F72196822B932B9C
:100AB0009093B2098093B109CE010E944B02219616
:100AC000C131D10541F6809113058C590DC080913B
:100AD00012050E94A2018A3A29F4809112056BEA5C
:100AE0000E94D00180911205DF91CF911F91FF905C
:100AF000EF90DF90CF90089580912605882329F00C
:100B000013BE15BC8DE085BD81E0089582E19AE7B2
:100B10009BBD8ABD87B7806187BF1FBC8CE08EBD3F
:100B200010927A000895AA2797FDA095BA2FBC01CC
:100B3000CD010E94923D2BE734E14EE65FE30E9437
:100B4000083C0E94F03DCB01089580B3807F803F38
:100B500011F480E0089580B382958F700895FC01B0
:100B6000329619C0E199FECF862F90E09F01281B95
:100B7000390B3FBB2EBB019723E0880F991F2A95A5
:100B8000E1F79A0102C0369527958A95E2F72DBBC9
:100B9000E29AE19A6150662329F708954091E303B0
:100BA0005091E40380E090E062E00E94AF05409144
:100BB000E20382E090E061E050E00E94AF054091E6
:100BC000E10383E090E061E050E00E94AF054091D6
:100BD000280584E090E061E050E00E94AF0540917C
:100BE000270585E090E061E050E00E94AF050895A0
:100BF00040E050E0FC0132961BC0E199FECF262F69
:100C000030E0CF01821B930B9FBB8EBBE09A8DB36C
:100C100090E02150304073E0220F331F7A95E1F7C6
:100C200002C0880F991F2A95E2F7482B592B615073
:100C3000662319F7CA01089580E090E062E00E94FF
:100C4000F8058F5F9F4F31F180E090E062E00E94F5
:100C5000F8059093E4038093E30382E090E061E081
:100C60000E94F8058093E20383E090E061E00E9437
:100C7000F8058093E10384E090E061E00E94F805CC
:100C80008093280585E090E061E00E94F80580935C
:100C9000270508950E94CE0508958091E2038530CE
:100CA000B1F0863038F4823081F0833081F08130C9
:100CB00081F40DC08A3059F08B3020F48750823097
:100CC00040F405C08C3029F402C08CE108958FE116
:100CD00008958EE10895AF92BF92CF92DF92EF9286
:100CE000FF920F931F93DF93CF93CDB7DEB7A097FB
:100CF0000FB6F894DEBF0FBECDBFF89488B3806FF7
:100D000088BB1B821C821D821E82FE0137968AE1EF
:100D1000DF011D928A95E9F78091E00300D000D0B1
:100D200000D0EDB7FEB731968E010D5F1F4FADB706
:100D3000BEB712961C930E931197A0E0EA2EA1E085
:100D4000FA2EF382E282848315820E9484428DB758
:100D50009EB706960FB6F8949EBF0FBE8DBF87E470
:100D600095E069E071E040E00E94A71B80938E0748
:100D7000882311F078944CC0E7E1AE2EE3E0BE2E5C
:100D80006E010894C11CD11C8FE897E0B80147E0C0
:100D90000E94492580938E078823A1F4F5010190D4
:100DA0000020E9F73197E751F3408FE897E067E1DA
:100DB00073E0AF0196010E94F9298FE897E00E9445
:100DC000573528C0883019F58091E0038F5F8093F4
:100DD000E0038091E00300D000D000D0EDB7FEB773
:100DE0003196ADB7BEB711960C93119712961C931E
:100DF000E282F382848315820E9484428DB79EB77B
:100E000006960FB6F8949EBF0FBE8DBF03C07894B0
:100E100080E00CC080918E07883009F4B5CF7894BB
:100E20008091650087718093650081E0A0960FB680
:100E3000F894DEBF0FBECDBFCF91DF911F910F9110
:100E4000FF90EF90DF90CF90BF90AF900895EF921A
:100E5000FF920F931F93CF93DF938091B7099091E7
:100E6000B80920912805309127054DB75EB7485045
:100E700050400FB6F8945EBF0FBE4DBFEDB7FEB742
:100E80003196ADB7BEB712969C938E9311978CE0B6
:100E900091E09383828324831582368317820E9494
:100EA0008442EDB7FEB738960FB6F894FEBF0FBE7A
:100EB000EDBF80914605863009F458C1873090F423
:100EC000823009F471C0833030F4882309F1813015
:100ED00009F084C258C0843009F40AC1853008F092
:100EE00026C19BC0893009F4CDC18A3038F48730DF
:100EF00009F45FC1883009F071C2A7C18B3009F4D1
:100F0000E5C18B3008F4DBC18C3009F067C208C240
:100F10008091B9099091BA0967E171E00E947D4220
:100F20008091B5099091B6092091B3033091B40333
:100F3000409113055091120560912105ADB7BEB7E0
:100F40001C970FB6F894BEBF0FBEADBFEDB7FEB78E
:100F5000319612969C938E93119781E291E0938340
:100F60008283358324834683178250871186628764
:100F700013860E9484428091B3099091B409EDB721
:100F8000FEB73C9622C28091B9099091BA096BE5EF
:100F900071E00E947D428091B5099091B6096AE6A0
:100FA00071E00E947D427FC08091B9099091BA0999
:100FB00067E771E00E947D4280911F058823C9F593
:100FC0008091B5099091B6092091110540912F05A6
:100FD000509130056DB77EB7685070400FB6F894E9
:100FE0007EBF0FBE6DBFEDB7FEB73196ADB7BEB7D2
:100FF00012969C938E93119785E991E09383828357
:1010000030E02F5F3F4F35832483578346830E9410
:101010008442EDB7FEB7389641C08091B9099091EE
:10102000BA096AEA71E00E947D4280911F05882317
:10103000A9F08091B5099091B6092091110500D0D1
:1010400000D000D0EDB7FEB73196ADB7BEB712965F
:101050009C938E93119783E891E014C08091B50919
:101060009091B6092091110500D000D000D0EDB7C5
:10107000FEB73196ADB7BEB712969C938E9311977B
:1010800087EB91E09383828330E02F5F3F4F35837E
:1010900024830E948442EDB7FEB736960FB6F894CB
:1010A000FEBF0FBEEDBF8091B3099091B4092091AE
:1010B0000E0530910F0500D000D000D0EDB7FEB77F
:1010C0003196ADB7BEB712969C938E9311978DE66D
:1010D00091E093838283358324830E948442EDB719
:1010E000FEB736960FB6F894FEBF0FBEEDBF76C1C1
:1010F0008091B9099091BA0969EC71E00E947D4232
:101100008091B5099091B6092091D6033091D7030B
:1011100000D000D000D0EDB7FEB73196ADB7BEB766
:1011200012969C938E93119788ED91E03DC080912B
:10113000B9099091BA0960EF71E00E947D428091F7
:10114000B5099091B6092091D8033091D90300D008
:1011500000D000D0EDB7FEB73196ADB7BEB712964E
:101160009C938E93119780E092E01EC08091B90904
:101170009091BA0968E172E00E947D428091B509C0
:101180009091B6092091B3033091B40300D000D000
:1011900000D0EDB7FEB73196ADB7BEB712969C93AF
:1011A0008E93119788E292E0938382833583248320
:1011B000ADC08091B9099091BA0968E172E00E94CE
:1011C0007D42C0E0D0E091E0E92EF12C0FE312E087
:1011D0002091B1093091B209C7010C2E02C0880FCD
:1011E000991F0A94E2F782239323892B29F12091F6
:1011F000B5093091B609FE01EE0FFF1FEB54FC4F0D
:101200008081918100D000D000D0EDB7FEB731963B
:10121000ADB7BEB712963C932E93119713830283FA
:10122000958384830E948442EDB7FEB736960FB64D
:10123000F894FEBF0FBEEDBF2196C131D10541F636
:101240008091B3099091B409C5C08091B90990917A
:10125000BA096CE572E00E947D428091B5099091D7
:10126000B6092091DE0300D000D000D0EDB7FEB764
:101270003196ADB7BEB712969C938E93119782E7C5
:1012800092E040C08091B9099091BA096AE872E091
:101290000E947D428091B5099091B6092091DF03AB
:1012A00000D000D000D0EDB7FEB73196ADB7BEB7D5
:1012B00012969C938E9311978FE992E023C08091B0
:1012C000B9099091BA0966EB72E006C08091B9093C
:1012D0009091BA096DEC72E00E947D428091B5094F
:1012E0009091B6092091210500D000D000D0EDB733
:1012F000FEB73196ADB7BEB712969C938E931197F9
:1013000085EC92E093838283248315820E94844239
:101310008091B3099091B409EDB7FEB7369655C0E8
:101320008091B9099091BA0961EE72E00E947D4204
:1013300040E050E08091060590910705FA01EE0F1C
:10134000FF1FED54FC4F20813181280F391F30934E
:101350000705209306054F5F5F4F4131510551F757
:101360008091B5099091B609209106053091070545
:1013700040911205509121056DB77EB76A507040BB
:101380000FB6F8947EBF0FBE6DBFEDB7FEB73196B6
:10139000ADB7BEB712969C938E93119783EF92E0F0
:1013A00093838283358324834683178250871186F3
:1013B0000E94844210920705109206058091B3099D
:1013C0009091B409EDB7FEB73A960FB6F894FEBF08
:1013D0000FBEEDBF67E571E00E947D42DF91CF91C6
:1013E0001F910F91FF90EF9008950F931F93DF933C
:1013F000CF9300D0CDB7DEB781E090E090932E057B
:1014000080932D0510921E050E942707F894609185
:10141000B7097091B8098091B7099091B809DC01BA
:101420000D900020E9F71197A81BB90B8FE897E002
:10143000AD018E010F5F1F4F98010E94F929809323
:101440008E076091B9097091BA098091B90990919C
:10145000BA09DC010D900020E9F71197A81BB90B20
:101460008FE897E0AD0198010E94F92980938E07DB
:101470006091B5097091B6098091B5099091B6094E
:10148000DC010D900020E9F71197A81BB90B8FE83C
:1014900097E0AD0198010E94F92980938E07609131
:1014A000B3097091B4098091B3099091B409DC013A
:1014B0000D900020E9F71197A81BB90B8FE897E072
:1014C000AD0198010E94F92980938E078FE897E07B
:1014D0000E94573580938E0710922E0510922D058D
:1014E000789490E0882309F491E0892F0F900F9071
:1014F000CF91DF911F910F9108950F931F93CF9379
:10150000DF93F8940E94F1018AEA8ABF80EF89BFD5
:101510008FE287B98FE886B989E183BD80E887BF0C
:101520008DE085BD82E780937000109271008AE0A3
:1015300090E00E9478419093B4098093B30984E1CC
:1015400090E00E9478419093B8098093B7098EE1AA
:1015500090E00E9478419093BA098093B90984E1A0
:1015600090E00E9478419093B6098093B5098091EC
:10157000B5099091B6092091D50300D000D000D0D4
:10158000EDB7FEB73196ADB7BEB712969C938E936A
:1015900011978FE093E093838283248315820E94C6
:1015A00084427894C0E0D0E08DB79EB706960FB61F
:1015B000F8949EBF0FBE8DBF08EC10E080916500CF
:1015C0008095887180936500CE010E944B0280ED6A
:1015D00097E0F8013197F1F70197D9F7C95ADB4F36
:1015E0009BE2C636D90751F710921D0580911D0563
:1015F00080931C0580911C0580931B0580911B0521
:1016000080931A050E946B06809321058091210525
:10161000882379F080B3807F803F11F480E003C09D
:1016200080B382958F700E94170590E088519C4F7F
:101630000CC080B3807F803F11F480E003C080B392
:1016400082958F700E94170590E00E944B0280E304
:1016500095E728EC30E0F9013197F1F70197D9F7D8
:1016600081E08093230580E197E228EC30E0F901E6
:101670003197F1F70197D9F71092230580E197E2AE
:1016800028EC30E0F9013197F1F70197D9F7809113
:101690006500816080936500109246058091210568
:1016A000882321F00E94F5090E948605DF91CF91E1
:1016B0001F910F9108954F925F926F927F928F9238
:1016C0009F92AF92BF92CF92DF92EF92FF920F93D1
:1016D0001F93CF93DF93E0E0F0E041E050E02091F2
:1016E000B1093091B209CA010E2E02C0880F991FAC
:1016F0000A94E2F782239323EF012196892B09F4C0
:101700006DC1FE01EE0FFF1FED54FC4F80819181F2
:10171000082F84E690E0C89F802D1124C82EDD2478
:10172000C601800F911D0E944B0288EE93E028ECC9
:1017300030E0F9013197F1F70197D9F7B6E05B2E68
:1017400044244394A8ECAA2EB12C7E01EE0CFF1C7D
:1017500083EB93E0E80EF91EE1E08E2E912C77E00A
:10176000772E66246A9480E00E94750313C08091EE
:101770002605882379F015BA13BE15BC80E197E2DF
:1017800028EC30E0F9013197F1F70197D9F78DE0B6
:1017900085BD02C130911A0580911B0590911C05F1
:1017A00020911D05832B892B822B09F380911B052A
:1017B000882389F0043110F40F5F14C08091650014
:1017C0008F708093650080E49FE1F5013197F1F718
:1017D0000197D9F7E7C080911D058823B1F0023049
:1017E00038F00150C601800F911D0E944B02DAC0F3
:1017F000809165008F708093650080E49FE1F50122
:101800003197F1F70197D9F7CDC080911C05882356
:1018100009F4A1C050924605809121058823D1F09A
:10182000809122058823E1F70E94F509882391F42D
:10183000109221058FE897E00E94BB3580E090E090
:1018400066E173E040E00E94A71B8091650088601C
:10185000809365004092230580E29EE4F501319774
:10186000F1F70197D9F710922305802F90E0F70147
:101870009183808320E030E040E050E0F901EE0FFA
:10188000FF1FED54FC4F80819181480F591F2F5F3E
:101890003F4F2131310591F75093E6034093E50323
:1018A000C0E0D0E02091B1093091B209C4010C2E02
:1018B00002C0880F991F0A94E2F782239323892B91
:1018C00039F1CE018F5F182F6EEA0E94740188EE05
:1018D00093E0F5013197F1F70197D9F7812F0E9435
:1018E000450190E090938D0780938C0780918C0741
:1018F00090918D078D3A910559F488EE93E0F501AA
:101900003197F1F70197D9F7812F602F0E94740169
:101910002196C031D10509F0C5CF7092460580915E
:101920002105882309F43DC00E94F5098823C9F5E3
:10193000109221058FE897E00E94BB3580E090E08F
:1019400066E173E040E00E94A71B8091650088601B
:101950008093650026C080911A05882319F115BA75
:1019600015BC80E197E228EC30E0F9013197F1F7FE
:101970000197D9F78DE085BD10921D0580911D0559
:1019800080931C0580911C0580931B0580911B058D
:1019900080931A058FEF88BF80E090E00E944B0291
:1019A00022C000E080ED97E0F5013197F1F7019753
:1019B000D9F710921D0580911D0580931C0580911B
:1019C0001C0580931B0580911B0580931A0580914F
:1019D000650080618093650068BEC5CEFE01C1319F
:1019E000D10509F07CCEDF91CF911F910F91FF902F
:1019F000EF90DF90CF90BF90AF909F908F907F90AF
:101A00006F905F904F900895EF92FF920F931F9306
:101A1000CF93DF931091DF03812F90E00E944B0260
:101A2000EE24E394C8ECD0E009E0F02E0FEF80E064
:101A30000E94750318C0809126058823A1F015BA6D
:101A400013BE15BC80E197E228EC30E0F901319734
:101A5000F1F70197D9F78DE085BD80E090E00E9415
:101A60004B0280E0A4C030911A0580911B05909133
:101A70001C0520911D05832B892B822BE1F280917F
:101A80001B058823C1F08091DE03212F30E090E018
:101A900005972817390714F41B5F12C08091650061
:101AA0008F708093650080E49FE1FE013197F1F72C
:101AB0000197D9F760C080911D05882331F015503A
:101AC000812F90E00E944B0256C080911C05882314
:101AD00059F11093DF03E092230580E29EE4FE01BA
:101AE0003197F1F70197D9F710922305F092460547
:101AF00080912105882309F43EC00E94F5098823BE
:101B0000D1F5109221058FE897E00E94BB3580E067
:101B100090E066E173E040E00E94A71B80916500C1
:101B200088608093650027C080911A05882319F189
:101B300015BA15BC80E197E228EC30E0F901319745
:101B4000F1F70197D9F78DE085BD10921D058091C1
:101B50001D0580931C0580911C0580931B058091B9
:101B60001B0580931A058FEF88BF80E090E00E94EC
:101B70004B0281E01CC080ED97E0FE013197F1F748
:101B80000197D9F710921D0580911D0580931C05C2
:101B900080911C0580931B0580911B0580931A057D
:101BA0008091650080618093650008BF40CFDF9120
:101BB000CF911F910F91FF90EF900895EF92FF92B8
:101BC0000F931F93CF93DF931091DE03812F90E04B
:101BD0000E944B02EE24E394C8ECD0E088E0F82E9B
:101BE0000FEF80E00E94750318C0809126058823BE
:101BF000A1F015BA13BE15BC80E197E228EC30E0E5
:101C0000F9013197F1F70197D9F78DE085BD80E0B3
:101C100090E00E944B0280E0B3C030911A058091A1
:101C20001B0590911C0520911D05832B892B822B70
:101C3000E1F280911B05882389F0183C10F41B5FAA
:101C40001BC0809165008F708093650080E49FE1E8
:101C5000FE013197F1F70197D9F776C080911D0504
:101C60008823E1F08091DF03212F30E090E005969A
:101C70008217930734F41550812F90E00E944B0295
:101C800063C0809165008F708093650080E49FE160
:101C9000FE013197F1F70197D9F756C080911C05E5
:101CA000882359F11093DE03E092230580E29EE43D
:101CB000FE013197F1F70197D9F710922305F092C1
:101CC000460580912105882309F43EC00E94F5094C
:101CD0008823D1F5109221058FE897E00E94BB354B
:101CE00080E090E066E173E040E00E94A71B8091F5
:101CF000650088608093650027C080911A0588235D
:101D000019F115BA15BC80E197E228EC30E0F90131
:101D10003197F1F70197D9F78DE085BD10921D0538
:101D200080911D0580931C0580911C0580931B05E7
:101D300080911B0580931A058FEF88BF80E090E0AB
:101D40000E944B0281E01CC080ED97E0FE013197BC
:101D5000F1F70197D9F710921D0580911D05809329
:101D60001C0580911C0580931B0580911B058093A9
:101D70001A058091650080618093650008BF31CFAE
:101D8000DF91CF911F910F91FF90EF900895EF9207
:101D9000FF920F931F93CF93DF938091B3039091A2
:101DA000B4030E944B0213E096E0F92EEE24E39474
:101DB000C8ECD0E00FEF80E00E94750313C0809163
:101DC0002605882379F015BA13BE15BC80E197E289
:101DD00028EC30E0F9013197F1F70197D9F78DE060
:101DE00085BD8DC030911A0580911B0590911C0511
:101DF00020911D05832B892B822B09F380911B05D4
:101E0000882389F0143110F41F5F14C0809165009D
:101E10008F708093650080E49FE1FE013197F1F7B8
:101E20000197D9F777C080911D058823A9F012305A
:101E300030F01150812F90E00E944B026BC08091D6
:101E400065008F708093650080E49FE1FE0131970B
:101E5000F1F70197D9F75EC080911C05882371F1D5
:101E6000812F90E09093B4038093B303F0924605E2
:101E7000809121058823B1F00E94F509882391F40F
:101E8000109221058FE897E00E94BB3580E090E03A
:101E900066E173E040E00E94A71B809165008860C6
:101EA00080936500E092230580E29EE4FE01319775
:101EB000F1F70197D9F7109223052CC080911A05EC
:101EC000882341F115BA15BC80E197E228EC30E097
:101ED000F9013197F1F70197D9F78DE085BD10929F
:101EE0001D0580911D0580931C0580911C05809324
:101EF0001B0580911B0580931A058FEF88BF80E03A
:101F000090E00E944B02DF91CF911F910F91FF90C3
:101F1000EF90089580ED97E0FE013197F1F701977A
:101F2000D9F710921D0580911D0580931C058091A5
:101F30001C0580931B0580911B0580931A058091D9
:101F4000650080618093650008BF35CFEF92FF92F6
:101F50000F931F93CF93DF938091D8039091D90370
:101F6000182F8091D8039091D9030E944B02EE2440
:101F7000E394C8ECD0E025E0F22E0FEF80E00E9461
:101F8000750318C0809126058823A1F015BA13BEE9
:101F900015BC80E197E228EC30E0F9013197F1F7C8
:101FA0000197D9F78DE085BD80E090E00E944B025B
:101FB00080E0B0C030911A0580911B0590911C05FE
:101FC00020911D05832B892B822BE1F280911B052B
:101FD000882389F0143610F41B5F14C080916500CB
:101FE0008F708093650080E49FE1FE013197F1F7E7
:101FF0000197D9F773C080911D058823A9F0163089
:1020000030F01550812F90E00E944B0267C0809104
:1020100065008F708093650080E49FE1FE01319739
:10202000F1F70197D9F75AC080911C05882379F1FF
:10203000812F90E09093D9038093D803E0922305F9
:1020400080E29EE4FE013197F1F70197D9F71092F3
:102050002305F092460580912105882309F43EC0AE
:102060000E94F5098823D1F5109221058FE897E0A9
:102070000E94BB3580E090E066E173E040E00E94A2
:10208000A71B8091650088608093650027C08091C0
:102090001A05882319F115BA15BC80E197E228ECDE
:1020A00030E0F9013197F1F70197D9F78DE085BD5F
:1020B00010921D0580911D0580931C0580911C05C3
:1020C00080931B0580911B0580931A058FEF88BFB5
:1020D00080E090E00E944B0281E01CC080ED97E020
:1020E000FE013197F1F70197D9F710921D05809104
:1020F0001D0580931C0580911C0580931B05809114
:102100001B0580931A0580916500806180936500AE
:1021100008BF34CFDF91CF911F910F91FF90EF90C7
:1021200008952F923F924F925F926F927F928F927B
:102130009F92AF92BF92CF92DF92EF92FF920F9356
:102140001F93CF93DF93382E80911205882309F0D7
:102150008BC18091B1099091B209892B09F06EC1B0
:102160008091B3039091B4039093E6038093E503C9
:1021700065C18091110590E001960E944B0282E0BA
:1021800080934605809121058823D1F08091220516
:102190008823E1F70E94F509882391F41092210524
:1021A0008FE897E00E94BB3580E090E066E173E045
:1021B00040E00E94A71B80916500886080936500C5
:1021C000809111052091B3033091B40390E0821700
:1021D000930708F057C0809111058A3028F4809148
:1021E0001105806F8BBB09C0809111056AE00E94C8
:1021F000D1409295907F9F609BBB6091D603709178
:10220000D70380E090E00E94443E5B016C0120E037
:1022100030E04AEF54E40E94083C7B018C0120E04E
:1022200030E040E85FE30E94623D88231CF461E0F7
:1022300070E022C0C801B70120E03FEF4FE757E44C
:102240000E94023D1816A4F4C601B50120E030E05A
:1022500040E251E40E94083C0E94323A05C0C401A9
:102260000197F1F76150704061157105C1F707C022
:10227000C801B7010E94323ACB010197F1F72BBA9E
:1022800010E070C0C0E0D0E011E02091B1093091C1
:10229000B209C3010C2E02C0880F991F0A94E2F7FD
:1022A00082239323892B09F442C0809129059091C0
:1022B0002A05892B41F4812F6FEA0E947401509204
:1022C0002A054092290588EE93E0F4013197F1F751
:1022D0000197D9F7812F0E94450190E090938D07D7
:1022E00080938C0780918C0790918D078C3A910593
:1022F000F1F48091110590E001960E944B028091CB
:1023000011052091E5033091E60390E001968217D4
:10231000930749F4812F6AEB0E94740110922A05F9
:102320001092290504C0812F64E00E947401219657
:102330001F5F113109F0A9CFA3CF8091D8039091ED
:10234000D9030197969587952817390719F481E0E5
:102350000E948F0280E197E2F4013197F1F7019733
:10236000D9F71F5F212F30E08091D8039091D903D6
:1023700001972817390708F383E080934605809179
:1023800021058823D1F0809122058823E1F70E945E
:10239000F509882391F4109221058FE897E00E94B7
:1023A000BB3580E090E066E173E040E00E94A71B4F
:1023B00080916500886080936500809111058F5F32
:1023C00080931105809111052091E5033091E6037A
:1023D00090E08217930711F41092110580EA9FE0B4
:1023E000F4013197F1F70197D9F73320E1F08091AB
:1023F0001A05813021F410921A050E94A60F0B993C
:1024000028C010921F051A9A81E08093230580E26C
:102410009EE428EC30E0F9013197F1F70197D9F704
:102420001092230521C020910E0530910F05809157
:10243000DF0390E02817390764F416C051E0652ED9
:10244000712C48EC842E912C31E0432E512C222407
:102450002A94809111052091E5033091E60390E0E4
:102460008217930708F485CE15BA15BC80E197E270
:1024700028EC30E0F9013197F1F70197D9F78DE0B9
:1024800085BD10921D0580911D0580931C058091CE
:102490001C0580931B0580911B0580931A05DF9115
:1024A000CF911F910F91FF90EF90DF90CF90BF9051
:1024B000AF909F908F907F906F905F904F903F90E4
:1024C0002F900895DF92EF92FF920F931F93CF9377
:1024D000DF93C091D603D091D70381E08093190593
:1024E0008091D6039091D70364E670E00E94DD40AE
:1024F000CB010E944B02DD24D39408EC10E074E081
:10250000E72EFF24FA9480E00E9475031AC08091A0
:1025100026058823B1F01092190515BA13BE15BC13
:1025200080E197E228EC30E0F9013197F1F701976B
:10253000D9F78DE085BD80E090E00E944B0280E0FD
:10254000BAC030911A0580911B0590911C0520910D
:102550001D05832B892B822BD1F280911B058823AB
:10256000A1F083E0C438D80718F4CC59DF4F16C067
:10257000809165008F708093650080E49FE1F80191
:102580003197F1F70197D9F77AC080911D0588231B
:10259000D9F0C536D10558F0C456D040CE0164E616
:1025A00070E00E94DD40CB010E944B0268C0809128
:1025B00065008F708093650080E49FE1F80131979A
:1025C000F1F70197D9F75BC080911C05882371F161
:1025D000D093D703C093D603D092230580E29EE424
:1025E000F8013197F1F70197D9F710922305E0929E
:1025F000460580912105882309F441C00E94F50910
:10260000882309F03CC0109221058FE897E00E94D2
:10261000BB3580E090E066E173E040E00E94A71BDC
:102620008091650088608093650029C080911A05BB
:10263000882329F11092190515BA15BC80E197E29B
:1026400028EC30E0F9013197F1F70197D9F78DE0E7
:1026500085BD10921D0580911D0580931C058091FC
:102660001C0580931B0580911B0580931A058FEF35
:1026700088BF80E090E00E944B0281E01CC080EDAA
:1026800097E0F8013197F1F70197D9F710921D05FE
:1026900080911D0580931C0580911C0580931B056E
:1026A00080911B0580931A0580916500806180935D
:1026B0006500F8BE28CFDF91CF911F910F91FF9059
:1026C000EF90DF9008952F923F924F925F926F921A
:1026D0007F928F929F92AF92BF92CF92DF92EF92B2
:1026E000FF920F931F93CF93DF9310928B0752E0CB
:1026F000852E43E0942E4424439433E0632E712CC2
:1027000024E6322EC8ECD0E055245A949DE0292EC0
:1027100010918B07143009F425C1153050F4113095
:1027200031F1113098F01230D1F1133009F0BEC1FF
:102730002DC1163009F46BC1163008F44EC11830A3
:1027400009F47FC1193009F0B1C196C10E947D0A18
:1027500080911205882309F4BBC1E0911205F0E0D5
:10276000EE0FFF1FED54FC4F71826082B4C11092D6
:102770001D0580911D0580931C0580911C0580938B
:102780001B0580911B0580931A05809112058823F3
:1027900009F0A1C10E94C70E0E945B0B99C18091F4
:1027A0001205E0911205F0E0EE0FFF1FED54FC4F13
:1027B00020813181839DC0011124820F931F0E94CB
:1027C0004B02809112050E94A20190E090938D0728
:1027D00080938C0780918C0790918D078E3A91059C
:1027E00029F08F3A910509F09FC01EC08091120513
:1027F0006DEA0E94D001809112050E94A20190E032
:1028000090938D0780938C07E0911205F0E0809102
:102810008C0790918D07EE0FFF1FED54FC4F9183B5
:10282000808310938B0780C0809112056CEA0E9410
:10283000D001809112050E94A20190E090938D0733
:1028400080938C07809111058A3028F480911105BE
:10285000806F8BBB09C0809111056AE00E94D14056
:102860009295907F9F609BBB6091D6037091D70338
:1028700080E090E00E94443E5B016C0120E030E08B
:102880004AEF54E40E94083C7B018C0120E030E0D8
:1028900040E85FE30E94623D88231CF461E070E041
:1028A00022C0C801B70120E03FEF4FE757E40E9484
:1028B000023D1816A4F4C601B50120E030E040E264
:1028C00051E40E94083C0E94323A05C0CE010197B3
:1028D000F1F76150704061157105C1F707C0C8017B
:1028E000B7010E94323ACB010197F1F75BBA8091B0
:1028F0008C0790918D07049759F4809111058F5F93
:10290000809311058091110590E00E944B028CCFBD
:1029100080918C0790918D078A3B910509F084CFB7
:102920001092110580928B0780911205E09112059B
:10293000F0E0EE0FFF1FED54FC4F20813181839DAD
:10294000C0011124820F931F0E944B0288EE93E076
:10295000FE013197F1F70197D9F710928D07109288
:102960008C07B9C010921D0580911D0580931C0530
:1029700080911C0580931B0580911B0580931A058F
:1029800080911F050E94911090928B0780911A05EB
:102990008823D9F015BA15BC80E197E2FE01319782
:1029A000F1F70197D9F725BC10921D0580911D05FF
:1029B00080931C0580911C0580931B0580911B054D
:1029C00080931A0558BE85E054C04092460581E0C8
:1029D0000E948F020E9427079BCE10921D058091B6
:1029E0001D0580931C0580911C0580931B0580911B
:1029F0001B0580931A0580916500886180936500AE
:102A00000E946212882309F463C086E032C01092EB
:102A10001D0580911D0580931C0580911C058093E8
:102A20001B0580911B0580931A05809165008861C4
:102A3000809365000E94A60F882309F449C088E0AE
:102A400018C010921D0580911D0580931C05809172
:102A50001C0580931B0580911B0580931A058091AE
:102A600065008861809365000E94DE0D882381F1F6
:102A700089E080938B074CCE10921D0580911D0537
:102A800080931C0580911C0580931B0580911B057C
:102A900080931A05809165008861809365000E948B
:102AA000040D8823A9F040928B0732CE10921D05A9
:102AB00080911D0580931C0580911C0580931B054A
:102AC00080911B0580931A0580911205882319F4C3
:102AD00090928B071DCE80928B071ACE1F920F9279
:102AE0000FB60F920BB60F9211242F933F934F9373
:102AF0005F936F937F938F939F93AF93BF93EF9366
:102B0000FF9380913305909134050196909334059D
:102B100080933305019709F0B4C0109234051092E8
:102B2000330581E080931E05809127058F5F809398
:102B30002705809127058C3309F085C01092270561
:102B4000809128058F5F8093280580912105813031
:102B5000A9F58093220580916500886080936500C7
:102B60008FE897E00E94BB3580E090E066E173E07B
:102B700040E00E94A71B0E946B0680932105809174
:102B800021058823D9F08CE0809346051092220518
:102B90000E94F509882391F4109221058FE897E0AF
:102BA0000E94BB3580E090E066E173E040E00E9467
:102BB000A71B80916500886080936500809128053F
:102BC000883109F040C0109228059091210591307C
:102BD000D1F58091E0038F5F8093E003909322050D
:102BE000809165008860809365008FE897E00E947F
:102BF000BB3580E090E066E173E040E00E94A71BF7
:102C00000E946B0680932105809121058823D9F0CD
:102C10008CE080934605109222050E94F5098823D6
:102C200091F4109221058FE897E00E94BB3580E077
:102C300090E066E173E040E00E94A71B8091650090
:102C4000886080936500809121058823D1F0809170
:102C500046058130B1F40E94F509813091F010925F
:102C600021058FE897E00E94BB3580E090E066E1A7
:102C700073E040E00E94A71B80916500886080930C
:102C80006500FF91EF91BF91AF919F918F917F91DF
:102C90006F915F914F913F912F910F900BBE0F90CD
:102CA0000FBE0F901F9018950F931F93CF93DF9334
:102CB0008C01EB01BA0120E030E00EC0F801E20F18
:102CC000F31FDE01A20FB31F8D919C91918380832E
:102CD000425050402E5F3F4F4230510578F7CB01B4
:102CE0008E7FDE01A80FB91FF801E80FF91F60FF02
:102CF00002C08C918083DF91CF911F910F91089535
:102D0000FC012091390530913A052115310569F111
:102D10008081918128173907D1F420913B053091AA
:102D20003C0540913D0550913E0586819781A085E7
:102D3000B185281739074A075B0749F420913F05F9
:102D400030914005848195812817390729F0623038
:102D5000710559F082E10895672B49F4809141058E
:102D6000909142058050914011F080E0089580E1FB
:102D700008950F931F93CF93DF93FC018B01609114
:102D8000390570913A05C081D1816C177D07D1F466
:102D900020913B0530913C0540913D0550913E0509
:102DA00086819781A085B185281739074A075B0777
:102DB00049F420913F053091400584819581281781
:102DC000390719F0672BC1F41FC0012B49F080911E
:102DD000410590914205892B79F480E091E005C08E
:102DE0008091410590914205019690934205809310
:102DF000410521E030E002C020E030E0C901DF9170
:102E0000CF911F910F910895D0933A05C093390542
:102E100086819781A085B18580933B0590933C0581
:102E2000A0933D05B0933E05848195819093400524
:102E300080933F051092420510924105C6CFEF9254
:102E4000FF920F931F93CF93DF93EC017A018B01D5
:102E50008EEF9FEFAFEFBFEFE80EF91E0A1F1B1FAB
:102E60008A899B89AC89BD890297A109B109E816B5
:102E7000F9060A071B0728F020E030E040E050E0A8
:102E800012C02A8130E040E050E0C801B7010E9442
:102E9000B2409B01AC018EA19FA1A8A5B9A5280FA6
:102EA000391F4A1F5B1FB901CA01DF91CF911F91E2
:102EB0000F91FF90EF900895CF93DF93FC019B015A
:102EC000AB01475F5F4F86859785A089B1890097E1
:102ED000A105B10571F1C289D38980E090E06EE26D
:102EE000FE01E80FF91FE0810196E03261F0E53064
:102EF00009F4E5EE8930910519F4DA016D93AD011D
:102F0000DA01ED93AD018B30910551F78B85F90115
:102F100080878C8D9D8DAE8DBF8D80839183A283A4
:102F2000B383888D998D958384838E899F899783B8
:102F30008683DA011C92DF91CF910895CF93DF93BE
:102F4000EC01A881B9811097F1F0FD0101C0319623
:102F50008081813218F420E030E017C08A33B9F75D
:102F60008C91282F30E0205330402A30310558F41E
:102F70001196AE17BF0739F42115310521F43196AA
:102F8000F983E88302C02FEF3FEFC901DF91CF91B2
:102F90000895FC010097D1F0A081B1811097B1F0A4
:102FA0008C91882399F016962D913C9117978281E8
:102FB00093812817390751F411968C910E94C837D4
:102FC00080FD02C080E0089583E0089589E00895BF
:102FD000CF93DF93EC010E94C917882331F52E8926
:102FE0003F8921153105F9F02130310511F082E0DA
:102FF0001CC0209141053091420591E020303907F5
:1030000019F420E030E005C02115310511F0215000
:1030100030403093420520934105232B21F4109238
:103020003A051092390519821882DF91CF910895DF
:103030008F929F92AF92BF92CF92DF92EF92FF92C8
:103040000F931F93CF93DF93EC018C81882309F4B6
:1030500044C0CAA4DBA4ECA4FDA48EE2882E912C6B
:103060008C0E9D1E8981B401A701960101E010E03C
:103070000E942538882311F081E030C01C828E8D9B
:103080009F8DA8A1B9A1A7019601281B390B4A0B56
:103090005B0B8E899F89A88DB98D281739074A0740
:1030A0005B07D8F48B81A82EBB2413C08E899F891F
:1030B000A88DB98DC80ED91EEA1EFB1E8981B401E8
:1030C000A701960101E010E00E9425380894A108AC
:1030D000B10882E0A816B10448F780E0DF91CF91F3
:1030E0001F910F91FF90EF90DF90CF90BF90AF9026
:1030F0009F908F900895AF92BF92CF92DF92EF9200
:10310000FF920F931F93DF93CF930F92CDB7DEB74C
:103110005C016A017B01FC0182A593A5A4A5B5A56C
:10312000481759076A077B0711F490E01FC0C501D3
:103130000E941818982F8823C9F4B501625D7F4F4B
:10314000F5018181A701960101E010E099830E94B9
:10315000CF379981882329F0CC24CA94DC2C7601BE
:1031600091E0F501C2A6D3A6E4A6F5A6892F0F909B
:10317000CF91DF911F910F91FF90EF90DF90CF9053
:10318000BF90AF900895CF93DF93EC011C828FEF37
:103190009FEFAFEFBFEF8AA79BA7ACA7BDA7CE015C
:1031A0000E947B18882311F023E029C0C45DDD4F05
:1031B00088819981CC52D24085559A4A11F022E0FB
:1031C0001EC0CC59DF4F88819981AA81BB81C4562A
:1031D000D040B07086549144A445B04011F420E032
:1031E0000EC020E0C058DF4F88819981AA81BB8141
:1031F000B07086549144A445B04009F021E0822F7C
:10320000DF91CF9108952F923F924F925F926F92EC
:103210007F928F929F92AF92BF92CF92DF92EF9266
:10322000FF920F931F93DF93CF93CDB7DEB76A97CB
:103230000FB6F894DEBF0FBECDBF6C01CB01B42E2C
:10324000D6011D921C920E949E177C0197FF02C01E
:103250008BE064C2FC01EE0FFF1FEB5CFA4F0081B4
:1032600011810115110511F48CE058C2F60111838A
:103270000083D8018C91882361F011968C910E9473
:10328000C83780FD06C0BB2009F445C282FD41C29B
:1032900042C2F8011082E1828E2D0E94023780FF27
:1032A00002C083E03BC2BB2011F082FD32C2C801E4
:1032B00040E050E060E070E00E94C318813021F0EF
:1032C00022243324210145C07E010894E11CF11C15
:1032D000A7012EEB31E0225D3F4FF801E20FF31F13
:1032E0002E5230408481882329F480E090E0A0E0D1
:1032F000B0E004C080859185A285B385FA018193F1
:103300009193A193B193AF01205F3F4FF1E02E3F26
:103310003F0709F7F1E1CF2ED12CCC0EDD1ED701EE
:103320002D903D904D905C90211431044104510446
:1033300011F482E007C0C801B201A1010E94C318C4
:10334000882371F0E4E0F0E0EE0EFF1EEC14FD04C3
:1033500031F7833011F481E0E1C1882309F0DDC148
:10336000D801D9968D919C91DA978050924009F0BE
:10337000D4C10C5B1F4FF80180819181045410402F
:103380004C01AA24BB2481149104A104B10449F482
:103390000E5A1F4FD8018D909D90AD90BC90025554
:1033A0001040F801868A978AA08EB18E46AD43837D
:1033B000842F8150823008F0B0C123AD22832223B4
:1033C00009F4ABC130E0C901019782239323892B13
:1033D00009F0A3C1015C1F4FD8016D907C900F5381
:1033E0001040F80171866086C3018F709070892B40
:1033F00009F093C10F5B1F4FD8018D919C9101542F
:1034000010406C01EE24FF24C114D104E104F10446
:1034100049F4025B1F4FF801C080D180E280F38045
:103420000E541040D801DC960D90BC91A02DBE8B9F
:10343000AD8BAB2B09F471C1242F30E040E050E09C
:10344000C501B4010E94B240698B7A8B8B8B9C8B37
:103450004D895E899A0140E050E02F8B388F498F6B
:103460005A8FE4E076946794EA95E1F74301AA2441
:10347000BB24820E931EA41EB51E860E971EA81E88
:10348000B91EC814D904EA04FB0408F446C1C818DC
:10349000D908EA08FB08D80112962C9130E040E0E8
:1034A00050E0C701B6010E940441C901DA0100974A
:1034B000A105B10509F431C1863FEFE09E07E0E0C8
:1034C000AE07E0E0BE0718F4772473940DC0863F82
:1034D000FFEF9F07F0E0AF07F0E0BF0718F033E021
:1034E000732E02C022E0722EF2E0CF2ED12CE12CFE
:1034F000F12CC80ED91EEA1EFB1ED8015296CD92A1
:10350000DD92ED92FC925597F801228E338E448E17
:10351000558E8F89988DA98DBA8D820D931DA41D0E
:10352000B51D868F978FA0A3B1A3820C931CA41CFA
:10353000B51C86A297A2A0A6B1A620853185F3E08E
:103540007F16D9F4232B09F0E8C0065A1F4FF80163
:1035500080819181A281B3810A551040F80182A334
:1035600093A3A4A3B5A3A7019601E2E0220F331F02
:10357000441F551FEA95D1F732C0232B09F4CDC063
:1035800029893A894B895C89820F931FA41FB51F33
:10359000F80182A393A3A4A3B5A3D701C601880F02
:1035A000991FAA1FBB1FF2E07F1619F49C01AD0101
:1035B00016C09C01AD012C0D3D1D4E1D5F1D569585
:1035C00047953795279581E090E0A0E0B0E0C822CC
:1035D000D922EA22FB222C0D3D1D4E1D5F1D2150DC
:1035E0003E4F4F4F5F4F99E056954795379527953A
:1035F0009A95D1F7F80186899789A08DB18D8217A8
:103600009307A407B50708F488C08FEF9FEFAFEFCB
:10361000BFEF86879787A08BB18B82879387A4871C
:10362000B58780E88583F3E07F1609F057C0025A1A
:103630001F4FD8018D919C910E551040019709F0B4
:103640004DC00894211C311C411C511CC801B20101
:10365000A1010E947B18882309F040C0F80115825F
:10366000045D1D4FD8018D919C910C5212408555DF
:103670009A4AA1F5F80186A597A5A0A9B1A98255F6
:103680009245A146B14451F50E5E1D4FF80180816F
:103690009181A281B3810251124082579247A14485
:1036A000B146E1F40A5E1D4FF80180819181A2814B
:1036B000B38106511240F80186879787A08BB18BA2
:1036C000065E1D4FF80180819181A281B3810A516C
:1036D0001240F80182879387A487B587D8017C922E
:1036E0008091370590913805019690933805809325
:1036F000370517969C938E93169780913905909174
:103700003A058017910739F410923A05109239055D
:1037100002C08AE003C080E001C08DE06A960FB667
:10372000F894DEBF0FBECDBFCF91DF911F910F91F7
:10373000FF90EF90DF90CF90BF90AF909F908F90D1
:103740007F906F905F904F903F902F9008951F93C0
:10375000DF93CF9300D000D000D0CDB7DEB79C83ED
:103760008B837E836D83142F7A836983CE010196C8
:103770000E949E17DC0197FF02C08BE02FC0FC0166
:10378000EE0FFF1FEB5CFA4F0190F081E02D3097B8
:1037900061F08091390590913A058E179F0721F4C9
:1037A00010923A05109239051082EB81FC81309716
:1037B00009F01082AA0FBB1FAB5CBA4FED93FC93CC
:1037C000EF2B59F0113049F4CE010396BE016B5F27
:1037D0007F4F40E00E94031901C080E026960FB69B
:1037E000F894DEBF0FBECDBFCF91DF911F9108953A
:1037F0006F927F928F929F92AF92BF92CF92DF9201
:10380000EF92FF920F931F93CF93DF935C016A01B6
:103810007B0138014901423051056105710508F409
:10382000D1C0F50182899389A489B58948175907C0
:103830006A077B0708F0C6C08081823009F46CC03B
:10384000833009F489C0813009F0BCC0EA01D69503
:10385000C795C40FD51FAE01452F5527469560E08B
:1038600070E0F501868D978DA0A1B1A1480F591F79
:103870006A1F7B1FC5010E947B18282F882309F02F
:10388000A2C0DE01B1702196860101701070011591
:10389000110551F0F501EA0FFB1F86A58F70962DDB
:1038A0009295907F982B01C0962DAA0DBB1D9E96D8
:1038B0009C9381E0F5018483AE01452F5527469501
:1038C00060E070E0868D978DA0A1B1A1480F591FCF
:1038D0006A1F7B1FC5010E947B18282F882309F0CF
:1038E00072C0D170012B49F014E0969487947794BC
:1038F00067941A95D1F7462D0BC0F501EC0FFD1F0B
:1039000046A5407FBB27A92D982D872D8F70482B6A
:10391000CA0DDB1D4EA752C0452F562F672F7727A4
:10392000F501868D978DA0A1B1A1480F591F6A1F7F
:103930007B1FC5010E947B18282F882309F043C0F4
:10394000CC0CDD1CEE1CFF1CF601F170BE96EA0DDE
:10395000FB1D7182608232C0E7E0769567955795CE
:103960004795EA95D1F7F501868D978DA0A1B1A174
:10397000480F591F6A1F7B1FC5010E947B18282F03
:10398000882309F532E0CC0CDD1CEE1CFF1C3A95B7
:10399000D1F7F601F170BE96EA0DFB1D8081918191
:1039A000A281B38180709070A070B07F8629972922
:1039B000A829B92980839183A283B38381E0F5018B
:1039C000848301C022E0822FDF91CF911F910F915C
:1039D000FF90EF90DF90CF90BF90AF909F908F902F
:1039E0007F906F900895BF92CF92DF92EF92FF92F7
:1039F0000F931F93CF93DF936C017A018B014230B9
:103A000051056105710508F4ACC0F60182899389FE
:103A1000A489B589481759076A077B0708F0A1C030
:103A20008081823009F457C0833009F474C081303A
:103A300009F097C0EA01D695C795C40FD51FAE010E
:103A4000452F5527469560E070E0F601868D978DED
:103A5000A0A1B1A1480F591F6A1F7B1FC6010E9478
:103A60007B18882309F082C0FE01F170EC0DFD1D6A
:103A7000B6A42196AE01452F5527469560E070E02B
:103A8000F601868D978DA0A1B1A1480F591F6A1F1D
:103A90007B1FC6010E947B18882309F067C06B2D2D
:103AA00070E0D170CC0DDD1D9EA580E0682B792BD8
:103AB000C70181709070892B39F0B4E076956795D5
:103AC000BA95E1F79B0124C09B0140E050E03F70B4
:103AD000407050704FC0452F562F672F7727F60143
:103AE000868D978DA0A1B1A1480F591F6A1F7B1F1A
:103AF000C6010E947B188823C9F5EE0CFF1C001F2D
:103B0000111FF701F170EC0DFD1D86A597A59C0115
:103B100040E050E02FC0E7E07695679557954795D0
:103B2000EA95D1F7F601868D978DA0A1B1A1480F36
:103B3000591F6A1F7B1FC6010E947B188823B1F49E
:103B400032E0EE0CFF1C001F111F3A95D1F7F70170
:103B5000F170EC0DFD1D26A537A540A951A95F7098
:103B600009C021E030E040E050E004C02FEF3FEF1B
:103B70004FEF5FEFB901CA01DF91CF911F910F9114
:103B8000FF90EF90DF90CF90BF9008956F927F925B
:103B90008F929F92AF92BF92CF92DF92EF92FF925D
:103BA0000F931F93CF93DF933C014B01DC011596DC
:103BB0007C936E9314971696ED90FD900D911C9149
:103BC0001997B1E0EB16F1040105110509F4C3C022
:103BD000DC01ED91FC9182899389A489B589E8166D
:103BE000F9060A071B0708F0B6C0E114F104010545
:103BF0001105C1F48081833041F482A193A1A4A175
:103C0000B5A10097A105B10559F480859185881665
:103C1000990608F0A0C022A133A144A155A166C015
:103C20007C018D018281C82EDD24E4E0CC0CDD1CFA
:103C3000EA95E1F726C0CE01B801A7010E94F31C66
:103C40007B018C016F3FBFEF7B07BFEF8B07BFEF9F
:103C50009B0711F481E080C06230710581059105F8
:103C600008F479C0D301ED91FC9182899389A489EC
:103C7000B589E816F9060A071B0708F06CC08C180E
:103C80009D08F301C081D1818C149D04A0F67EEFC4
:103C9000A72E7FEFB72E7FEFC72E7FEFD72EAE0C6C
:103CA000BF1CC01ED11E8A899B89AC89BD89029721
:103CB000A109B109A816B906CA06DB0628F020E05A
:103CC00030E040E050E012C02A8130E040E050E0B7
:103CD000C601B5010E94B2409B01AC018EA19FA11B
:103CE000A8A5B9A5280F391F4A1F5B1FD3011A9633
:103CF000ED92FD920D931C931D9721153105410501
:103D0000510549F1C40164E0969587956A95E1F7FC
:103D1000A0E0B0E0820F931FA41FB51FF3018687B8
:103D20009787A08BB18BFFE08F22992435E0880C18
:103D3000991C3A95E1F78EE290E0880E991ED30126
:103D40008D919C911197880D991D53969C938E93FC
:103D5000529780E001C082E0DF91CF911F910F91D7
:103D6000FF90EF90DF90CF90BF90AF909F908F909B
:103D70007F906F9008954F925F926F927F928F9293
:103D80009F92AF92BF92CF92DF92EF92FF920F93EA
:103D90001F93CF93DF93EC012A013B01411551059D
:103DA0006105710599F48A849B84AC84BD84811477
:103DB0009104A104B10451F18A899B89AC89BD8920
:103DC00088169906AA06BB0608F525C00E94F31CB2
:103DD0009B01AC01623071058105910508F494C026
:103DE0002F3F8FEF38078FEF48078FEF580709F401
:103DF00099C08A899B89AC89BD89281739074A07E8
:103E00005B0708F48FC05301420105C0A1E08A2E70
:103E1000912CA12CB12C750164010894C11CD11CFA
:103E2000E11CF11C8A899B89AC89BD89C816D90619
:103E3000EA06FB0660F022E082169104A104B104B8
:103E400008F46CC0F2E0CF2ED12CE12CF12CCE0185
:103E5000B701A6010E94F31C9B01AC01611571051D
:103E600081059105A9F02F3F8FEF38078FEF4807A5
:103E70008FEF580709F456C021303105410551052F
:103E800009F450C0C814D904EA04FB0431F646C052
:103E9000BC2CAD2C9E2C8F2CCE01A601B7010FEFB0
:103EA0001FEF2FEF3FE00E94F81B882359F54114C4
:103EB00051046104710449F0CE01B301A2018601ED
:103EC00097010E94F81B8823E9F4BA86AB869C868A
:103ED0008D868E859F85A889B9898F3F2FEF9207A0
:103EE0002FEFA2072FEFB20751F00197A109B109F7
:103EF0008E879F87A88BB98B8D8181608D83A70169
:103F0000960110C0813029F021E030E040E050E01F
:103F100009C02FEF3FEF4FEF5FEF04C020E030E02C
:103F200040E050E0B901CA01DF91CF911F910F919C
:103F3000FF90EF90DF90CF90BF90AF909F908F90C9
:103F40007F906F905F904F900895AF92BF92CF9205
:103F5000DF92EF92FF920F931F93CF93DF93EC01C9
:103F60007A018B01423051056105710508F457C093
:103F70008A899B89AC89BD89481759076A077B07DD
:103F800008F442C04CC0CE01B801A7010E94F31C46
:103F90005B016C01611571058105910509F441C052
:103FA00081E0A816B104C104D104C9F12FEFA21613
:103FB0002FEFB2062FEFC2062FEFD20611F481E0E9
:103FC00031C0CE01B801A70100E010E020E030E0F0
:103FD0000E94F81B882331F58E859F85A889B989B1
:103FE0008F3F2FEF92072FEFA2072FEFB20751F06D
:103FF0000196A11DB11D8E879F87A88BB98B8D81DE
:1040000081608D83860175018A899B89AC89BD8910
:10401000E816F9060A071B0708F4B5CF02C082E0CC
:1040200001C080E0DF91CF911F910F91FF90EF9041
:10403000DF90CF90BF90AF900895CF93DF93EC01C6
:104040006C817D810E94C61D282F8823F1F44E8546
:104050005F8568897989888199810E947B18282FDA
:10406000882399F4EA89FB8980E290E001C01192EB
:1040700001973FEF8F3F9307D1F7EA89FB8985EEE0
:104080008083E881F98181E08483822FDF91CF9161
:1040900008952F923F924F925F926F927F928F92EC
:1040A0009F92AF92BF92CF92DF92EF92FF920F93C7
:1040B0001F93DF93CF9300D000D00F92CDB7DEB720
:1040C0009A8389837D836C838A01CA01BE016F5FF5
:1040D0007F4F40E00E940319682FF8018080918093
:1040E000882309F0B6C0F4012685378540895189B7
:1040F000E288F38804891589D801C7010297A109CC
:10410000B10982179307A407B50738F0EC81FD8148
:1041100020833183428353839CC0F401F081FB836D
:10412000F130C1F5AA24BB24650182E0E82EF12C10
:10413000012D112DC401B801A7010E94F31C6F3F8E
:104140002FEF72072FEF82072FEF920711F491E004
:1041500071C0613071058105910511F492E06AC06A
:10416000611571058105910529F40894A11CB11C04
:10417000C11CD11C0894E11CF11C011D111DF4018E
:1041800082899389A489B589E816F9060A071B076D
:1041900088F24FC0F401468C578C60A071A0BEE23B
:1041A0002B2E312C280C391C20E030E0E0E0F0E030
:1041B000AA24BB2465012115310581F4C401B30192
:1041C000A2010E947B18982F8823A1F50894411C16
:1041D000511C611C711CF10120E032E08B818230A6
:1041E00069F480819181892B29F40894A11CB11C68
:1041F000C11CD11C32962250304011C08081918167
:10420000A281B381BF700097A105B10529F408947C
:10421000A11CB11CC11CD11C349624503040089400
:10422000E108F10801091109E114F1040105110582
:1042300011F690E0F401A686B786C08AD18A8581FE
:1042400081608583EC81FD81A082B182C282D382AC
:10425000692F862F0F900F900F900F900F90CF9196
:10426000DF911F910F91FF90EF90DF90CF90BF9063
:10427000AF909F908F907F906F905F904F903F9006
:104280002F9008954F925F926F927F928F929F929C
:10429000AF92BF92CF92DF92EF92FF920F931F9354
:1042A000CF93DF93EC016B016C807D800894611CDF
:1042B000711C6114710409F44CC18E859F85A88915
:1042C000B9890097A105B10509F443C11FE0412E4A
:1042D000512C462057204114510409F027C1019662
:1042E000A11DB11D8E879F87A88BB98B4A855B85E1
:1042F0006C857D85E881F981411551056105710560
:1043000039F4808591856816790608F40FC121C1BA
:10431000828190E001979301A4E036952795AA95B4
:10432000E1F782239323892B09F000C1CF010E947A
:10433000F31C7B018C01623071058105910508F445
:104340000AC18FEFE8168FEFF8068FEF08078FEF9F
:10435000180709F402C1E881F98182899389A48947
:10436000B589E816F9060A071B0708F4A6C0CD2888
:1043700009F4EFC04A855B856C857D85CF010E947D
:10438000BB1E7B018C01611571058105910511F43E
:1043900087E0E4C091E0E916F1040105110509F494
:1043A000DAC0AFEFEA16AFEFFA06AFEF0A07AFEFEA
:1043B0001A0709F4D2C0888199810E9418188823AD
:1043C00009F0CBC0E881F981BE9680E092E001C09F
:1043D00011920197BFEF8F3F9B07D1F7888099809B
:1043E0002EEFA22E2FEFB22E2FEFC22E2FEFD22EB6
:1043F000AE0CBF1CC01ED11EF40182899389A48912
:10440000B5890297A109B109A816B906CA06DB0643
:1044100028F020E030E040E050E015C0D4011296D2
:104420002C9130E040E050E0C601B5010E94B2405E
:104430009B01AC01F40186A197A1A0A5B1A5280F0D
:10444000391F4A1F5B1FD4019A962D933D934D93BC
:104450005C939D97CC24DD24BB24B39418C0B48214
:10446000888199810E941818882309F076C0E88114
:10447000F98182A593A5A4A5B5A50196A11DB11D9D
:1044800082A793A7A4A7B5A70894C11CD11CE88153
:10449000F981828190E0C816D90608F3960140E0C0
:1044A00050E082A593A5A4A5B5A5821B930BA40BF0
:1044B000B50B82A793A7A4A7B5A7EA86FB860C87AE
:1044C0001D87C880D9808EEF9FEFAFEFBFEFE80E5A
:1044D000F91E0A1F1B1FF60182899389A489B589D9
:1044E0000297A109B109E816F9060A071B0728F087
:1044F00020E030E040E050E015C0D60112962C914B
:1045000030E040E050E0C801B7010E94B2409B019A
:10451000AC01F60186A197A1A0A5B1A5280F391F6E
:104520004A1F5B1F2E873F87488B598B7D826C8289
:1045300095E0440C551C9A95E1F78EE290E0480E08
:10454000591E88819981840D951D9B8B8A8B80E0F3
:1045500005C084E003C082E001C081E0DF91CF911B
:104560001F910F91FF90EF90DF90CF90BF90AF9091
:104570009F908F907F906F905F904F9008959F9243
:10458000AF92BF92CF92DF92EF92FF920F931F9361
:10459000CF93DF93EC017B01FB0180818F3211F01F
:1045A0008C3519F40894E11CF11C1E821F821886B8
:1045B0001986F7018081803260F4CE0160E070E0FE
:1045C0000E94C61D1B8A1A8A21C10894E11CF11C95
:1045D00003C0F0E29F2E05E0F70180818F32A9F33E
:1045E0008C3599F3AC89BD89FD018BE090E001C069
:1045F000919201972FEF8F3F9207D1F740E050E063
:10460000AA24BB24E8E0CE2ED12C10E0F701EA0D5D
:10461000FB1D20810894A11CB11C213208F466C046
:104620002F3209F4FFC02C3509F4FCC02E3219F0EA
:104630004C155D0580F088E0C816D10409F0E1C092
:104640002E3209F0DEC0110F110F48E050E07BE080
:10465000C72ED12CDBCF27FD1360822F81588F31DD
:1046600018F08F558D3108F5F701EA0DFB1D3081EB
:10467000832F80548F3320F080548D3708F0C1C0D1
:10468000C60101974817590708F0BBC00894A11C40
:10469000B11CFD01E40FF51F2083CA010196FD0145
:1046A000E80FF91F3083AC011EC0622F70E0E7EE07
:1046B000F3E001C031968081882329F090E08617CD
:1046C0009707C1F79EC0822F81548A3110F412607F
:1046D00006C0822F81568A3110F411602052FD01EC
:1046E000E40FF51F20834F5F5F4F90CF912F64E061
:1046F000452B09F486C08C91853E09F40C93E8E0C3
:10470000CE16D10419F4912F990F990F292F30E06B
:10471000C90183709070019709F460612C7030704A
:104720002430310509F468601B966C93CE0160E07B
:1047300070E00E94C61D482F882379F54E855F855D
:1047400068897989888199810E947B18482F8823FC
:1047500021F5EA89FB898081882311F444E01DC09A
:10476000838583FD14C0DF018C899D899C01F9013B
:104770002BE030E0215030408FEF2F3F380769F0B9
:104780009C918081981719F411963196F3CFCE0140
:1047900060E070E00E944221CECFEC89FD899385D4
:1047A000442331F0842F443071F592FF2EC02EC087
:1047B00092FD29C0AA89BB891B968C911B9784FF07
:1047C00024C05A968D919C915B979C0140E050E0EB
:1047D000E881F9818081833069F454968D919C91B0
:1047E0005597A0E0B0E0DC0199278827282B392BCA
:1047F0004A2B5B2BEA0CFB1C2E833F83488759878F
:10480000EBCE86E003C0842F01C085E0DF91CF911D
:104810001F910F91FF90EF90DF90CF90BF90AF90DE
:104820009F900895912F60E063CFCF92DF92EF9237
:10483000FF921F93DF93CF93CDB7DEB7A6970FB646
:10484000F894DEBF0FBECDBF9EA38DA36B01ADE07C
:10485000EA2EF12CEC0EFD1EC701BE016B5D7F4FF1
:1048600040E00E940319182F8823C9F4CE01019655
:104870009AA389A36DA17EA1C7010E94BF22182F10
:10488000882369F48F8D98A1892B11F416E007C055
:10489000C114D10421F0C701B6010E945C17812F19
:1048A000A6960FB6F894DEBF0FBECDBFCF91DF91B5
:1048B0001F91FF90EF90DF90CF900895FF920F939C
:1048C0001F93DF93CF93CDB7DEB760970FB6F89401
:1048D000DEBF0FBECDBF8C01788B6F87009719F4B8
:1048E00079E0F72E7AC0CE010196BE01615F7F4F5D
:1048F00040E00E940319F82E882309F06BC08981DB
:104900009A81F80191838083CE010396958B848BE5
:104910006F857889C8010E94BF22F82E882309F08C
:1049200051C0F801A289B389109719F11B968C9197
:104930001B9784FF4DC05A968D919C915B979C016B
:1049400040E050E0E981FA818081833069F4549637
:104950008D919C915597A0E0B0E0DC0199278827C4
:10496000282B392B4A2B5B2BF80126833783408772
:104970005187E981FA8186819781F8019383828347
:10498000C80160E070E00E94C61DF82E8823D1F4B3
:10499000F80186819781A085B1850097A105B105B1
:1049A00069F0C80160E070E00E94B916F801978BC9
:1049B000868B892B91F482E1F82E0CC0F801178ABE
:1049C000168A0BC0F4E0FF1619F0FF2031F002C088
:1049D000B5E0FB2EF801118210828F2D60960FB684
:1049E000F894DEBF0FBECDBFCF91DF911F910F9125
:1049F000FF9008951F93CF93DF93EC0160E070E088
:104A00000E94C61D182F8823C1F44E855F856889D2
:104A10007989888199810E947B18182F882369F4ED
:104A2000EA89FB89E081E53E41F1EE2331F1CE01D7
:104A300061E070E00E944221E5CF1430C9F417E034
:104A400017C0EA89FB8980E290E001C011920197CA
:104A50002FEF8F3F9207D1F76C897D898A899B89D7
:104A60004BE050E00E945416E881F98181E0848394
:104A7000812FDF91CF911F9108954E855F856889C1
:104A80007989888199810E947B18182F8823C9F21F
:104A9000EFCF4F925F926F927F928F929F92AF92E1
:104AA000BF92CF92DF92EF92FF920F931F93DF930B
:104AB000CF93CDB7DEB7A6970FB6F894DEBF0FBE83
:104AC000CDBF3C017EA36DA3009719F469E0462E8B
:104AD0002EC1DC011D921C925FE1552E54228E01E5
:104AE000035F1F4F4E71C801BE016B5D7F4F0E9477
:104AF0000319482E882309F01AC1CE0101969AA302
:104B000089A36DA17EA1C8010E94BF22282FCF8C4E
:104B1000D8A0882381F4C114D10411F426E00BC07D
:104B200060E070E0852D8E7F11F061E070E0C801DB
:104B30000E948016282F452D50E0CA018C7190707C
:104B4000892B09F47AC0222391F0243041F480911A
:104B5000390590913A05892B09F401C122E1CF8CE6
:104B6000D8A0222309F006C1B8E05B2A08C0F601EC
:104B70008385817111F027E0FDC052FCF6C053FE21
:104B800069C080E090E0A9E6BDEBF60186879787D3
:104B9000A08BB18B1386D6015C961D921D921D923F
:104BA0001C925F97ED85FE859601265E3F4F5A96D3
:104BB0008D919C915B977C0100E010E080818330B7
:104BC00069F454968D919C915597A0E0B0E0DC017A
:104BD00099278827E82AF92A0A2B1B2BD9011D922D
:104BE0001C92D60155961C921E92549781E08483A4
:104BF000E114F1040105110569F182A493A4A4A4B0
:104C0000B5A4CF01B801A7010E94A51F882309F010
:104C1000AFC0ED85FE850894E108F108010911098E
:104C2000E286F38604871587CF01B501A4010E94AF
:104C30007B18282F882371F09DC0222309F09AC089
:104C4000F601838584FF02C084E092C051FE02C059
:104C500080FD8DC053FE02C0F0E25F2AED85FE8527
:104C600082A593A5A4A5B5A5F301828F938FA48FE8
:104C7000B58FD78EC68E60E070E0852D8E7F11F0E7
:104C800061E070E0CE010D960E94B916D3019196B5
:104C90009C938E939097892B19F402E0402E47C085
:104CA000F30154821582ED85FE85D6015A968D91C9
:104CB0009C915B979C0140E050E08081833069F4D7
:104CC00054968D919C915597A0E0B0E0DC01992716
:104CD0008827282B392B4A2B5B2BD3011E962D932B
:104CE0003D934D935C935197D6015C962D913D91E8
:104CF0004D915C915F97D3011A962D933D934D93FF
:104D00005C931D9716961D921D921D921C921997E9
:104D100056961D921D921D921C9259971196FC93C6
:104D2000EE938681978113969C938E931297842D90
:104D3000A6960FB6F894DEBF0FBECDBFCF91DF9120
:104D40001F910F91FF90EF90DF90CF90BF90AF90A9
:104D50009F908F907F906F905F904F900895CE01BD
:104D60000D960E94FA24282FFACE28E003C087E08F
:104D7000482EDDCF422EDBCF0F931F93CF93DF93CF
:104D8000EC018B0184E025C0888199810E947B1809
:104D9000882351F5EA89FB899081992371F1238554
:104DA000953E81F09E3271F0922F9F739F3051F0AB
:104DB00020E030E09F71983011F421E030E02017BE
:104DC0003107B1F0CE0160E070E00E9442218823FB
:104DD00059F44E855F8568897989411551056105CA
:104DE000710591F6882321F01E861F86188A198A7C
:104DF000DF91CF911F910F91089584E0F5CFEF924D
:104E0000FF920F931F93DF93CF93CDB7DEB72C970D
:104E10000FB6F894DEBF0FBECDBF8C017B010E94A0
:104E2000C917882371F5E114F10431F4C80160E079
:104E300070E00E94C61D25C0CE010196F801958B39
:104E4000848BC80160E070E00E94BC26843031F49D
:104E5000F80116861786108A118A02C0882389F401
:104E6000C801B7010E945C17C80160E070E00E94B1
:104E70004221843031F4F80116861786108A118A8F
:104E800080E02C960FB6F894DEBF0FBECDBFCF9159
:104E9000DF911F910F91FF90EF900895BF92CF92F5
:104EA000DF92EF92FF920F931F93CF93DF93EC016A
:104EB0000E94C917B82E882309F083C0BD80BB208B
:104EC00009F07FC06C8161FF87C02E813F814885DA
:104ED00059858A859B85AC85BD85281739074A0782
:104EE0005B0708F06EC02A873B874C875D8760624E
:104EF0006C8388819981211531054105510559F44B
:104F00004E855F85688979890E94A51F1E861F8648
:104F1000188A198A38C04A895B896C897D890E9400
:104F2000F31C6B017C018FEFC8168FEFD8068FEF53
:104F3000E8068FEFF80611F481E041C081E0C81661
:104F4000D104E104F10409F44AC0E881F9818289BD
:104F50009389A489B589C816D906EA06FB06A8F480
:104F60004A895B896C897D89CF010FEF1FEF2FEF95
:104F70003FE00E94F81B882311F588819981B701D1
:104F8000A6010E94A51F8823D1F48C8186FF19C039
:104F9000E881F981BE016E5D7F4F2E893F89488D82
:104FA000598D818101E010E00E942538882319F095
:104FB000BB24B39405C08C818F7B8C8302C0B82E38
:104FC000BD828B2DDF91CF911F910F91FF90EF90BC
:104FD000DF90CF90BF90089577E0B72EF2CF82E0B8
:104FE000EECF2F923F924F925F926F927F928F926D
:104FF0009F92AF92BF92CF92DF92EF92FF920F9368
:105000001F93DF93CF9300D000D00F92CDB7DEB7C0
:105010009D838C835A016B010E94C9178983882361
:1050200009F0CEC1AC81BD8115968C91159788236E
:1050300009F0C7C11A966D907D908D909C901D9738
:105040006A147B048C049D0420F414968C9181FFD7
:1050500002C035014601EC81FD8126813781408502
:10506000518516821782108611866114710481049D
:10507000910409F439C10190F081E02DFB83EA83AA
:105080008281A82EBB24CC24DD24A9E0AA0CBB1C61
:10509000CC1CDD1CAA95D1F7211531054105510520
:1050A000C1F119012A010894210831084108510869
:1050B000C401B3016150704080409040A601950149
:1050C0000E94044179018A01C201B101A601950142
:1050D0000E940441E216F30604071507D0F0882762
:1050E0009927DC018A199B09AC09BD09822193210A
:1050F000A421B521EC81FD8186839783A087B187A8
:10510000681A790A8A0A9B0A4289538964897589CF
:1051100034C0AC81BD811E964D915D916D917C91A5
:1051200051974115510561057105F9F48A819B81FB
:1051300040E050E060E070E00E94BB1EAB01BC01AB
:10514000413051056105710509F452C04F3FFFEF31
:105150005F07FFEF6F07FFEF7F0709F4F0C0EC81F7
:10516000FD8146875787608B718BAC81BD815296DC
:105170004D935D936D937C93559741155105610552
:10518000710509F050C0B0C0EC81FD81848120819F
:10519000318181FF0DC0C9010E94BB1EAB01BC0162
:1051A000411551056105710541F43501460141C0C4
:1051B000C9010E94F31CAB01BC014F3FFFEF5F0729
:1051C000FFEF6F07FFEF7F0709F4B9C042305105C9
:1051D0006105710568F0AC81BD81ED91FC9182891A
:1051E0009389A489B589481759076A077B0710F086
:1051F00082E0C2C0AC81BD8152964D935D936D93A8
:105200007C935597FD0186819781A085B1858A0D94
:105210009B1DAC1DBD1D86839783A087B1876A182F
:105220007B088C089D08A614B704C804D90408F4A8
:10523000ABCFEC81FD8186819781A085B185860DFC
:10524000971DA81DB91D86839783A087B187D401B8
:10525000C3019170A070B0700097A105B10509F469
:1052600043C000811181FEEFAF2EFFEFBF2EFFEF95
:10527000CF2EFFEFDF2EA40EB51EC61ED71EF801DF
:1052800082899389A489B5890297A109B109A816D1
:10529000B906CA06DB06C0F4228130E040E050E0E7
:1052A000C601B5010E94B2409B01AC01F80186A184
:1052B00097A1A0A5B1A5280F391F4A1F5B1F211573
:1052C00031054105510511F482E03AC064015301F2
:1052D000E9E0D694C794B794A794EA95D1F7A20EC3
:1052E000B31EC41ED51E03C0AA24BB246501EC81D5
:1052F000FD8186819781A085B1859170A070B07085
:105300000097A105B10509F443C026893789408D6E
:10531000518DA216B306C406D506D1F1848186FF4D
:1053200019C00190F081E02D6C817D816E5D7F4F11
:10533000818101E010E00E942538882331F081E06E
:10534000AC81BD8115968C933CC0EC81FD8184813C
:105350008F7B8483AC81BD81ED91FC911197BD0160
:105360006E5D7F4F8181A601950101E010E00E94F2
:10537000CF37882329F081E0EC81FD81858321C02E
:10538000AC81BD815696AD92BD92CD92DC9259977B
:10539000EC81FD8126813781408551858285938509
:1053A000A485B58582179307A407B50748F422871B
:1053B00033874487558784818062848380E001C07D
:1053C00089810F900F900F900F900F90CF91DF91E8
:1053D0001F910F91FF90EF90DF90CF90BF90AF9013
:1053E0009F908F907F906F905F904F903F902F9005
:1053F00008952F923F925F926F927F928F929F9229
:10540000AF92BF92CF92DF92EF92FF920F931F93D2
:10541000DF93CF9300D000D000D0CDB7DEB79E830E
:105420008D83162F072F3A013C832B83D9011D92C0
:105430001C920E94C917882E882309F0EBC1ED81C8
:10544000FE818580882009F0E5C1848181FD03C04B
:1054500077E0872EDFC1AD81BE8116962D913D91FB
:105460004D915C911997C301A0E0B0E0820F931FAA
:10547000A41FB51F82179307A407B50710F466246D
:105480007724812F902F9C011901ED81FE81B29626
:10549000FA83E9839AC1AD81BE8116962D913D9123
:1054A0004D915C911997DA01C9019170A070B070AB
:1054B0000097A105B10509F04AC1AD81BE81ED910A
:1054C000FC91DA01C90169E0B695A7959795879592
:1054D0006A95D1F792809A94982209F050C02115CC
:1054E00031054105510599F4AD81BE811E962D917E
:1054F0003D914D915C915197211531054105510523
:10550000C9F4CF0140E050E060E070E009C0AD8137
:10551000BE8152964D915D916D917C915597CF01D1
:105520000E94BB1E9B01AC016115710581059105AF
:1055300009F44FC1213031054105510529F482E0BC
:10554000ED81FE81858372C02F3FFFEF3F07FFEFA4
:105550004F07FFEF5F0709F491C0ED81FE81228BB9
:10556000338B448B558B86859785A089B1890097AD
:10557000A105B10521F426873787408B518BED813A
:10558000FE81848186FF1DC00190F081E02DAD81F8
:10559000BE8156962D913D914D915C915997818197
:1055A00069817A8101E010E00E942538882309F0A2
:1055B000BFC0AD81BE8114968C9114978F7B1496D9
:1055C0008C93ED81FE810081118122893389448988
:1055D00055892250304040405040F80182899389DB
:1055E000A489B5890297A109B109281739074A0783
:1055F0005B07B8F45280652D70E080E090E00E9477
:10560000B2409B01AC01F80186A197A1A0A5B1A56C
:10561000280F391F4A1F5B1F211531054105510510
:1056200041F482E0AD81BE8115968C9392E0892E83
:10563000F1C069017A01C90CD11CE11CF11C5301B4
:10564000AB2CBB24A694A114B10409F44CC0292DA1
:1056500030E0C501820F931F652D70E06817790750
:1056600018F45B01A21AB30AF8018181B101A70104
:10567000960185010E942538882331F081E0AD81B3
:10568000BE8115968C9358C0ED81FE81268937899D
:10569000408D518D2C193D094E095F09C501A0E0CF
:1056A000B0E0281739074A075B07C0F419E0220F5A
:1056B000331F441F551F1A95D1F7B101620F731F95
:1056C00089819A8140E052E00E945416AD81BE81EA
:1056D00014968C9114978F7B14968C938501102FC0
:1056E0000027110F55C0ED81FE8186899789A08D15
:1056F000B18D8C159D05AE05BF0509F12681378159
:105700004085518582859385A485B58528173907FD
:105710004A075B07A0F4D80111968C9169817A81C0
:10572000A701960101E010E00E94CF37882339F0ED
:1057300081E0ED81FE818583882483946BC0AD81F7
:10574000BE815696CD92DD92ED92FC925997ED81F5
:10575000FE812681378140855185C901917060E0C5
:1057600072E0681B790B83016615770508F48B01DD
:10577000C90191708296AD81BE818A0F9B1FB101D4
:10578000A8010E945416ED81FE8184818064848387
:10579000200E311EC801A0E0B0E0ED81FE8126811F
:1057A000378140855185280F391F4A1F5B1F26838B
:1057B000378340875187EB81FC8180819181800F05
:1057C000911F91838083601A710A6114710409F03A
:1057D00062CEAD81BE8116962D913D914D915C9129
:1057E00019971A968D919D910D90BC91A02D8217BD
:1057F0009307A407B50730F4ED81FE812287338734
:1058000044875587AD81BE8114968C911497806230
:1058100014968C93882D26960FB6F894DEBF0FBE93
:10582000CDBFCF91DF911F910F91FF90EF90DF904F
:10583000CF90BF90AF909F908F907F906F905F9030
:105840003F902F900895EF92FF920F931F93DF9355
:10585000CF9300D0CDB7DEB77C01162F6A3019F494
:105860006DE00E94232CF7014281538157FD27C030
:10587000E40FF51F16838A010F5F1F4F0D331105CB
:10588000B4F0B7016A5F7F4FF70180819181A80171
:105890009E012F5F3F4F0E94F92989819A818017CD
:1058A000910719F00FEF1FEF02C000E010E0F701C1
:1058B00013830283848195810196958384830F905D
:1058C0000F90CF91DF911F910F91FF90EF9008956E
:1058D0002F923F924F925F926F927F928F929F9200
:1058E000AF92BF92CF92DF92EF92FF920F931F93EE
:1058F000DF93CF93CDB7DEB7CC55D0400FB6F89439
:10590000DEBF0FBECDBFE5966EAC7FACE597E396EC
:105910008EAD9FADE3979C8B8B8B1E8A1D8A188E54
:105920001F8A65E7E62EF12CEC0EFD1E5DE2252EAA
:1059300001C07201D3016C91662309F47BC1089404
:10594000611C711C653219F0CE014396ABC0F301A6
:10595000B1903F01F0E3BF1631F4D301BD903D019A
:10596000332433940AC0BDE2BB1611F0332405C0C2
:10597000F301B1903F0142E0342E8824992413C0F2
:10598000C40133E0880F991F3A95E1F7880C991C00
:10599000880E991E8B0C911C80ED9FEF880E991E2E
:1059A000D301BD903D018B2D80538A3048F3BCE676
:1059B000BB1619F0ECE4BE1629F4F4E03F2AD3013B
:1059C000BD903D01BB2009F435C18B2D81568A3134
:1059D00010F0AB2D02C0AB2DA052AF34A1F0A0351A
:1059E00048F4A33409F44DC0A43479F0A23409F08A
:1059F00056C05CC0A53549F0A83509F44EC0A335A2
:105A000009F04DC004C028E052C02AE050C002E0B6
:105A1000402E512C4E0C5F1CF701E080F18000E01D
:105A200010E002C00F5F1F4FF701E00FF11F8081F0
:105A30008823C1F731FE06C014C0CE01439660E250
:105A40000E94232C0F5F1F4FC801019788159905ED
:105A5000A0F307C00894E11CF11CCE0143960E94FC
:105A6000232CD7016C916623A9F707C0CE0143967A
:105A700060E20E94232C0F5F1F4F08151905B0F339
:105A800058CF12E0412E512C4E0C5F1CCE01439694
:105A9000F70160810E94232C4CCF20E108C0CE0189
:105AA00043966B2D0E94232C270143CF22E032FE28
:105AB0000DC0B4E04B2E512C4E0C5F1CF701E08062
:105AC000F18002811381A43409F514C087010E5FAF
:105AD0001F4FF70160817181A43439F428017B01E3
